{
  "address": "0x5FbDB2315678afecb367f032d93F642f64180aa3",
  "abi": [
    {
      "inputs": [],
      "stateMutability": "nonpayable",
      "type": "constructor"
    },
    {
      "inputs": [
        {
          "internalType": "uint256",
          "name": "index",
          "type": "uint256"
        }
      ],
      "name": "ActionFailed",
      "type": "error"
    },
    {
      "inputs": [],
      "name": "AnyAddressDisallowedForWhoAndWhere",
      "type": "error"
    },
    {
      "inputs": [],
      "name": "ConditionNotPresentForAnyAddress",
      "type": "error"
    },
    {
      "inputs": [],
      "name": "InsufficientGas",
      "type": "error"
    },
    {
      "inputs": [
        {
          "internalType": "uint256",
          "name": "expected",
          "type": "uint256"
        },
        {
          "internalType": "uint256",
          "name": "actual",
          "type": "uint256"
        }
      ],
      "name": "NativeTokenDepositAmountMismatch",
      "type": "error"
    },
    {
      "inputs": [
        {
          "internalType": "address",
          "name": "where",
          "type": "address"
        },
        {
          "internalType": "address",
          "name": "who",
          "type": "address"
        },
        {
          "internalType": "bytes32",
          "name": "permissionId",
          "type": "bytes32"
        },
        {
          "internalType": "address",
          "name": "currentCondition",
          "type": "address"
        },
        {
          "internalType": "address",
          "name": "newCondition",
          "type": "address"
        }
      ],
      "name": "PermissionAlreadyGrantedForDifferentCondition",
      "type": "error"
    },
    {
      "inputs": [],
      "name": "PermissionsForAnyAddressDisallowed",
      "type": "error"
    },
    {
      "inputs": [],
      "name": "TooManyActions",
      "type": "error"
    },
    {
      "inputs": [
        {
          "internalType": "address",
          "name": "where",
          "type": "address"
        },
        {
          "internalType": "address",
          "name": "who",
          "type": "address"
        },
        {
          "internalType": "bytes32",
          "name": "permissionId",
          "type": "bytes32"
        }
      ],
      "name": "Unauthorized",
      "type": "error"
    },
    {
      "inputs": [
        {
          "internalType": "bytes4",
          "name": "callbackSelector",
          "type": "bytes4"
        },
        {
          "internalType": "bytes4",
          "name": "magicNumber",
          "type": "bytes4"
        }
      ],
      "name": "UnkownCallback",
      "type": "error"
    },
    {
      "inputs": [],
      "name": "ZeroAmount",
      "type": "error"
    },
    {
      "anonymous": false,
      "inputs": [
        {
          "indexed": false,
          "internalType": "address",
          "name": "previousAdmin",
          "type": "address"
        },
        {
          "indexed": false,
          "internalType": "address",
          "name": "newAdmin",
          "type": "address"
        }
      ],
      "name": "AdminChanged",
      "type": "event"
    },
    {
      "anonymous": false,
      "inputs": [
        {
          "indexed": true,
          "internalType": "address",
          "name": "beacon",
          "type": "address"
        }
      ],
      "name": "BeaconUpgraded",
      "type": "event"
    },
    {
      "anonymous": false,
      "inputs": [
        {
          "indexed": false,
          "internalType": "address",
          "name": "sender",
          "type": "address"
        },
        {
          "indexed": true,
          "internalType": "bytes4",
          "name": "sig",
          "type": "bytes4"
        },
        {
          "indexed": false,
          "internalType": "bytes",
          "name": "data",
          "type": "bytes"
        }
      ],
      "name": "CallbackReceived",
      "type": "event"
    },
    {
      "anonymous": false,
      "inputs": [
        {
          "indexed": true,
          "internalType": "address",
          "name": "sender",
          "type": "address"
        },
        {
          "indexed": true,
          "internalType": "address",
          "name": "token",
          "type": "address"
        },
        {
          "indexed": false,
          "internalType": "uint256",
          "name": "amount",
          "type": "uint256"
        },
        {
          "indexed": false,
          "internalType": "string",
          "name": "_reference",
          "type": "string"
        }
      ],
      "name": "Deposited",
      "type": "event"
    },
    {
      "anonymous": false,
      "inputs": [
        {
          "indexed": true,
          "internalType": "address",
          "name": "actor",
          "type": "address"
        },
        {
          "indexed": false,
          "internalType": "bytes32",
          "name": "callId",
          "type": "bytes32"
        },
        {
          "components": [
            {
              "internalType": "address",
              "name": "to",
              "type": "address"
            },
            {
              "internalType": "uint256",
              "name": "value",
              "type": "uint256"
            },
            {
              "internalType": "bytes",
              "name": "data",
              "type": "bytes"
            }
          ],
          "indexed": false,
          "internalType": "struct IDAO.Action[]",
          "name": "actions",
          "type": "tuple[]"
        },
        {
          "indexed": false,
          "internalType": "uint256",
          "name": "allowFailureMap",
          "type": "uint256"
        },
        {
          "indexed": false,
          "internalType": "uint256",
          "name": "failureMap",
          "type": "uint256"
        },
        {
          "indexed": false,
          "internalType": "bytes[]",
          "name": "execResults",
          "type": "bytes[]"
        }
      ],
      "name": "Executed",
      "type": "event"
    },
    {
      "anonymous": false,
      "inputs": [
        {
          "indexed": true,
          "internalType": "bytes32",
          "name": "permissionId",
          "type": "bytes32"
        },
        {
          "indexed": true,
          "internalType": "address",
          "name": "here",
          "type": "address"
        },
        {
          "indexed": false,
          "internalType": "address",
          "name": "where",
          "type": "address"
        },
        {
          "indexed": true,
          "internalType": "address",
          "name": "who",
          "type": "address"
        },
        {
          "indexed": false,
          "internalType": "contract IPermissionCondition",
          "name": "condition",
          "type": "address"
        }
      ],
      "name": "Granted",
      "type": "event"
    },
    {
      "anonymous": false,
      "inputs": [
        {
          "indexed": false,
          "internalType": "uint8",
          "name": "version",
          "type": "uint8"
        }
      ],
      "name": "Initialized",
      "type": "event"
    },
    {
      "anonymous": false,
      "inputs": [
        {
          "indexed": false,
          "internalType": "bytes",
          "name": "metadata",
          "type": "bytes"
        }
      ],
      "name": "MetadataSet",
      "type": "event"
    },
    {
      "anonymous": false,
      "inputs": [
        {
          "indexed": false,
          "internalType": "address",
          "name": "sender",
          "type": "address"
        },
        {
          "indexed": false,
          "internalType": "uint256",
          "name": "amount",
          "type": "uint256"
        }
      ],
      "name": "NativeTokenDeposited",
      "type": "event"
    },
    {
      "anonymous": false,
      "inputs": [
        {
          "indexed": false,
          "internalType": "string",
          "name": "daoURI",
          "type": "string"
        }
      ],
      "name": "NewURI",
      "type": "event"
    },
    {
      "anonymous": false,
      "inputs": [
        {
          "indexed": true,
          "internalType": "bytes32",
          "name": "permissionId",
          "type": "bytes32"
        },
        {
          "indexed": true,
          "internalType": "address",
          "name": "here",
          "type": "address"
        },
        {
          "indexed": false,
          "internalType": "address",
          "name": "where",
          "type": "address"
        },
        {
          "indexed": true,
          "internalType": "address",
          "name": "who",
          "type": "address"
        }
      ],
      "name": "Revoked",
      "type": "event"
    },
    {
      "anonymous": false,
      "inputs": [
        {
          "indexed": false,
          "internalType": "address",
          "name": "signatureValidator",
          "type": "address"
        }
      ],
      "name": "SignatureValidatorSet",
      "type": "event"
    },
    {
      "anonymous": false,
      "inputs": [
        {
          "indexed": false,
          "internalType": "bytes4",
          "name": "interfaceId",
          "type": "bytes4"
        },
        {
          "indexed": false,
          "internalType": "bytes4",
          "name": "callbackSelector",
          "type": "bytes4"
        },
        {
          "indexed": false,
          "internalType": "bytes4",
          "name": "magicNumber",
          "type": "bytes4"
        }
      ],
      "name": "StandardCallbackRegistered",
      "type": "event"
    },
    {
      "anonymous": false,
      "inputs": [
        {
          "indexed": false,
          "internalType": "address",
          "name": "forwarder",
          "type": "address"
        }
      ],
      "name": "TrustedForwarderSet",
      "type": "event"
    },
    {
      "anonymous": false,
      "inputs": [
        {
          "indexed": true,
          "internalType": "address",
          "name": "implementation",
          "type": "address"
        }
      ],
      "name": "Upgraded",
      "type": "event"
    },
    {
      "stateMutability": "nonpayable",
      "type": "fallback"
    },
    {
      "inputs": [],
      "name": "EXECUTE_PERMISSION_ID",
      "outputs": [
        {
          "internalType": "bytes32",
          "name": "",
          "type": "bytes32"
        }
      ],
      "stateMutability": "view",
      "type": "function"
    },
    {
      "inputs": [],
      "name": "REGISTER_STANDARD_CALLBACK_PERMISSION_ID",
      "outputs": [
        {
          "internalType": "bytes32",
          "name": "",
          "type": "bytes32"
        }
      ],
      "stateMutability": "view",
      "type": "function"
    },
    {
      "inputs": [],
      "name": "ROOT_PERMISSION_ID",
      "outputs": [
        {
          "internalType": "bytes32",
          "name": "",
          "type": "bytes32"
        }
      ],
      "stateMutability": "view",
      "type": "function"
    },
    {
      "inputs": [],
      "name": "SET_METADATA_PERMISSION_ID",
      "outputs": [
        {
          "internalType": "bytes32",
          "name": "",
          "type": "bytes32"
        }
      ],
      "stateMutability": "view",
      "type": "function"
    },
    {
      "inputs": [],
      "name": "SET_SIGNATURE_VALIDATOR_PERMISSION_ID",
      "outputs": [
        {
          "internalType": "bytes32",
          "name": "",
          "type": "bytes32"
        }
      ],
      "stateMutability": "view",
      "type": "function"
    },
    {
      "inputs": [],
      "name": "SET_TRUSTED_FORWARDER_PERMISSION_ID",
      "outputs": [
        {
          "internalType": "bytes32",
          "name": "",
          "type": "bytes32"
        }
      ],
      "stateMutability": "view",
      "type": "function"
    },
    {
      "inputs": [],
      "name": "UPGRADE_DAO_PERMISSION_ID",
      "outputs": [
        {
          "internalType": "bytes32",
          "name": "",
          "type": "bytes32"
        }
      ],
      "stateMutability": "view",
      "type": "function"
    },
    {
      "inputs": [
        {
          "components": [
            {
              "internalType": "enum PermissionLib.Operation",
              "name": "operation",
              "type": "uint8"
            },
            {
              "internalType": "address",
              "name": "where",
              "type": "address"
            },
            {
              "internalType": "address",
              "name": "who",
              "type": "address"
            },
            {
              "internalType": "address",
              "name": "condition",
              "type": "address"
            },
            {
              "internalType": "bytes32",
              "name": "permissionId",
              "type": "bytes32"
            }
          ],
          "internalType": "struct PermissionLib.MultiTargetPermission[]",
          "name": "_items",
          "type": "tuple[]"
        }
      ],
      "name": "applyMultiTargetPermissions",
      "outputs": [],
      "stateMutability": "nonpayable",
      "type": "function"
    },
    {
      "inputs": [
        {
          "internalType": "address",
          "name": "_where",
          "type": "address"
        },
        {
          "components": [
            {
              "internalType": "enum PermissionLib.Operation",
              "name": "operation",
              "type": "uint8"
            },
            {
              "internalType": "address",
              "name": "who",
              "type": "address"
            },
            {
              "internalType": "bytes32",
              "name": "permissionId",
              "type": "bytes32"
            }
          ],
          "internalType": "struct PermissionLib.SingleTargetPermission[]",
          "name": "items",
          "type": "tuple[]"
        }
      ],
      "name": "applySingleTargetPermissions",
      "outputs": [],
      "stateMutability": "nonpayable",
      "type": "function"
    },
    {
      "inputs": [],
      "name": "daoURI",
      "outputs": [
        {
          "internalType": "string",
          "name": "",
          "type": "string"
        }
      ],
      "stateMutability": "view",
      "type": "function"
    },
    {
      "inputs": [
        {
          "internalType": "address",
          "name": "_token",
          "type": "address"
        },
        {
          "internalType": "uint256",
          "name": "_amount",
          "type": "uint256"
        },
        {
          "internalType": "string",
          "name": "_reference",
          "type": "string"
        }
      ],
      "name": "deposit",
      "outputs": [],
      "stateMutability": "payable",
      "type": "function"
    },
    {
      "inputs": [
        {
          "internalType": "bytes32",
          "name": "_callId",
          "type": "bytes32"
        },
        {
          "components": [
            {
              "internalType": "address",
              "name": "to",
              "type": "address"
            },
            {
              "internalType": "uint256",
              "name": "value",
              "type": "uint256"
            },
            {
              "internalType": "bytes",
              "name": "data",
              "type": "bytes"
            }
          ],
          "internalType": "struct IDAO.Action[]",
          "name": "_actions",
          "type": "tuple[]"
        },
        {
          "internalType": "uint256",
          "name": "_allowFailureMap",
          "type": "uint256"
        }
      ],
      "name": "execute",
      "outputs": [
        {
          "internalType": "bytes[]",
          "name": "execResults",
          "type": "bytes[]"
        },
        {
          "internalType": "uint256",
          "name": "failureMap",
          "type": "uint256"
        }
      ],
      "stateMutability": "nonpayable",
      "type": "function"
    },
    {
      "inputs": [],
      "name": "getTrustedForwarder",
      "outputs": [
        {
          "internalType": "address",
          "name": "",
          "type": "address"
        }
      ],
      "stateMutability": "view",
      "type": "function"
    },
    {
      "inputs": [
        {
          "internalType": "address",
          "name": "_where",
          "type": "address"
        },
        {
          "internalType": "address",
          "name": "_who",
          "type": "address"
        },
        {
          "internalType": "bytes32",
          "name": "_permissionId",
          "type": "bytes32"
        }
      ],
      "name": "grant",
      "outputs": [],
      "stateMutability": "nonpayable",
      "type": "function"
    },
    {
      "inputs": [
        {
          "internalType": "address",
          "name": "_where",
          "type": "address"
        },
        {
          "internalType": "address",
          "name": "_who",
          "type": "address"
        },
        {
          "internalType": "bytes32",
          "name": "_permissionId",
          "type": "bytes32"
        },
        {
          "internalType": "contract IPermissionCondition",
          "name": "_condition",
          "type": "address"
        }
      ],
      "name": "grantWithCondition",
      "outputs": [],
      "stateMutability": "nonpayable",
      "type": "function"
    },
    {
      "inputs": [
        {
          "internalType": "address",
          "name": "_where",
          "type": "address"
        },
        {
          "internalType": "address",
          "name": "_who",
          "type": "address"
        },
        {
          "internalType": "bytes32",
          "name": "_permissionId",
          "type": "bytes32"
        },
        {
          "internalType": "bytes",
          "name": "_data",
          "type": "bytes"
        }
      ],
      "name": "hasPermission",
      "outputs": [
        {
          "internalType": "bool",
          "name": "",
          "type": "bool"
        }
      ],
      "stateMutability": "view",
      "type": "function"
    },
    {
      "inputs": [
        {
          "internalType": "bytes",
          "name": "_metadata",
          "type": "bytes"
        },
        {
          "internalType": "address",
          "name": "_initialOwner",
          "type": "address"
        },
        {
          "internalType": "address",
          "name": "_trustedForwarder",
          "type": "address"
        },
        {
          "internalType": "string",
          "name": "daoURI_",
          "type": "string"
        }
      ],
      "name": "initialize",
      "outputs": [],
      "stateMutability": "nonpayable",
      "type": "function"
    },
    {
      "inputs": [
        {
          "internalType": "address",
          "name": "_where",
          "type": "address"
        },
        {
          "internalType": "address",
          "name": "_who",
          "type": "address"
        },
        {
          "internalType": "bytes32",
          "name": "_permissionId",
          "type": "bytes32"
        },
        {
          "internalType": "bytes",
          "name": "_data",
          "type": "bytes"
        }
      ],
      "name": "isGranted",
      "outputs": [
        {
          "internalType": "bool",
          "name": "",
          "type": "bool"
        }
      ],
      "stateMutability": "view",
      "type": "function"
    },
    {
      "inputs": [
        {
          "internalType": "bytes32",
          "name": "_hash",
          "type": "bytes32"
        },
        {
          "internalType": "bytes",
          "name": "_signature",
          "type": "bytes"
        }
      ],
      "name": "isValidSignature",
      "outputs": [
        {
          "internalType": "bytes4",
          "name": "",
          "type": "bytes4"
        }
      ],
      "stateMutability": "view",
      "type": "function"
    },
    {
      "inputs": [],
      "name": "proxiableUUID",
      "outputs": [
        {
          "internalType": "bytes32",
          "name": "",
          "type": "bytes32"
        }
      ],
      "stateMutability": "view",
      "type": "function"
    },
    {
      "inputs": [
        {
          "internalType": "bytes4",
          "name": "_interfaceId",
          "type": "bytes4"
        },
        {
          "internalType": "bytes4",
          "name": "_callbackSelector",
          "type": "bytes4"
        },
        {
          "internalType": "bytes4",
          "name": "_magicNumber",
          "type": "bytes4"
        }
      ],
      "name": "registerStandardCallback",
      "outputs": [],
      "stateMutability": "nonpayable",
      "type": "function"
    },
    {
      "inputs": [
        {
          "internalType": "address",
          "name": "_where",
          "type": "address"
        },
        {
          "internalType": "address",
          "name": "_who",
          "type": "address"
        },
        {
          "internalType": "bytes32",
          "name": "_permissionId",
          "type": "bytes32"
        }
      ],
      "name": "revoke",
      "outputs": [],
      "stateMutability": "nonpayable",
      "type": "function"
    },
    {
      "inputs": [
        {
          "internalType": "string",
          "name": "newDaoURI",
          "type": "string"
        }
      ],
      "name": "setDaoURI",
      "outputs": [],
      "stateMutability": "nonpayable",
      "type": "function"
    },
    {
      "inputs": [
        {
          "internalType": "bytes",
          "name": "_metadata",
          "type": "bytes"
        }
      ],
      "name": "setMetadata",
      "outputs": [],
      "stateMutability": "nonpayable",
      "type": "function"
    },
    {
      "inputs": [
        {
          "internalType": "address",
          "name": "_signatureValidator",
          "type": "address"
        }
      ],
      "name": "setSignatureValidator",
      "outputs": [],
      "stateMutability": "nonpayable",
      "type": "function"
    },
    {
      "inputs": [
        {
          "internalType": "address",
          "name": "_newTrustedForwarder",
          "type": "address"
        }
      ],
      "name": "setTrustedForwarder",
      "outputs": [],
      "stateMutability": "nonpayable",
      "type": "function"
    },
    {
      "inputs": [],
      "name": "signatureValidator",
      "outputs": [
        {
          "internalType": "contract IERC1271",
          "name": "",
          "type": "address"
        }
      ],
      "stateMutability": "view",
      "type": "function"
    },
    {
      "inputs": [
        {
          "internalType": "bytes4",
          "name": "interfaceId",
          "type": "bytes4"
        }
      ],
      "name": "supportsInterface",
      "outputs": [
        {
          "internalType": "bool",
          "name": "",
          "type": "bool"
        }
      ],
      "stateMutability": "view",
      "type": "function"
    },
    {
      "inputs": [
        {
          "internalType": "address",
          "name": "newImplementation",
          "type": "address"
        }
      ],
      "name": "upgradeTo",
      "outputs": [],
      "stateMutability": "nonpayable",
      "type": "function"
    },
    {
      "inputs": [
        {
          "internalType": "address",
          "name": "newImplementation",
          "type": "address"
        },
        {
          "internalType": "bytes",
          "name": "data",
          "type": "bytes"
        }
      ],
      "name": "upgradeToAndCall",
      "outputs": [],
      "stateMutability": "payable",
      "type": "function"
    },
    {
      "stateMutability": "payable",
      "type": "receive"
    }
  ],
  "transactionHash": "0x30cfc55d8ed3df981f7845502d8aa94c85ac5e1e9798a11ef554e4ccbdd0e3c9",
  "args": [],
  "numDeployments": 1,
  "solcInputHash": "c7ea73a52e0ddc8f9a84ed42aa34ed3f",
  "bytecode": "0x60a0604052306080523480156200001557600080fd5b506200002062000026565b620000e8565b600054610100900460ff1615620000935760405162461bcd60e51b815260206004820152602760248201527f496e697469616c697a61626c653a20636f6e747261637420697320696e697469604482015266616c697a696e6760c81b606482015260840160405180910390fd5b60005460ff9081161015620000e6576000805460ff191660ff9081179091556040519081527f7f26b83ff96e1f2b6a682f133852f6798a09c465da95921460cefb38474024989060200160405180910390a15b565b608051613e646200012060003960008181610b7c01528181610c2c01528181610e2701528181610ed701526110200152613e646000f3fe6080604052600436106101d15760003560e01c8063829331a1116100f7578063d96054c411610095578063e978afe511610064578063e978afe514610721578063eafb8b0614610741578063ee57e36f14610761578063fdef91061461078157610210565b8063d96054c414610679578063da74222814610699578063e2e35563146106b9578063e306bee7146106ed57610210565b8063c71bf324116100d1578063c71bf324146105df578063c9dbc2a41461060d578063ce1b815f1461062d578063d68bad2c1461065957610210565b8063829331a114610578578063bfe07da6146105ac578063c4a50145146105bf57610210565b80632675fdd01161016f5780633e2ab0d91161013e5780633e2ab0d91461050e5780634f1ef2861461052e57806352d1902d146105415780637034731b1461055657610210565b80632675fdd01461044757806326875b1f146104675780633659cfe61461049b578063388da934146104bb57610210565b80631080f99b116101ab5780631080f99b146103805780631626ba7e146103a257806322844d04146103f357806324b4d73f1461041357610210565b806301ffc9a7146102d55780630729d0541461030a57806309e56b141461034c57610210565b3661021057604080513381523460208201527f62c2c8e34665db7c56b2cabd7f5fb9702ccd352ffa8150147e450797e9f8e8f3910160405180910390a1005b34801561021c57600080fd5b50600036606060006102886000357fffffffff000000000000000000000000000000000000000000000000000000001685858080601f0160208091040260200160405190810160405280939291908181526020018383808284376000920191909152506107a192505050565b604080517fffffffff000000000000000000000000000000000000000000000000000000008316602082015291925001604051602081830303815290604052915050915050805190602001f35b3480156102e157600080fd5b506102f56102f0366004613011565b6108a8565b60405190151581526020015b60405180910390f35b34801561031657600080fd5b5061033e7fbf04b4486c9663d805744005c3da000eda93de6e3308a4a7a812eb565327b78d81565b604051908152602001610301565b34801561035857600080fd5b5061033e7f815fe80e4b37c8582a3b773d1d7071f983eacfd56b5965db654f3087c25ada3381565b34801561038c57600080fd5b506103a061039b366004613077565b61092d565b005b3480156103ae57600080fd5b506103c26103bd366004613193565b610966565b6040517fffffffff000000000000000000000000000000000000000000000000000000009091168152602001610301565b3480156103ff57600080fd5b506103a061040e3660046131fc565b610a30565b34801561041f57600080fd5b5061033e7f1f53edd44352e5d15bad2b29233baa93bcd595e09457780bc7c5445bbbe751cc81565b34801561045357600080fd5b506102f5610462366004613284565b610b00565b34801561047357600080fd5b5061033e7ffaf505be9907aa6951c2ebe5b0312f4980e14f21912ed355372103cc8bd683bc81565b3480156104a757600080fd5b506103a06104b63660046132f0565b610b65565b3480156104c757600080fd5b5061012d546104e99073ffffffffffffffffffffffffffffffffffffffff1681565b60405173ffffffffffffffffffffffffffffffffffffffff9091168152602001610301565b34801561051a57600080fd5b506103a06105293660046132f0565b610d6a565b6103a061053c36600461330d565b610e10565b34801561054d57600080fd5b5061033e611006565b34801561056257600080fd5b5061056b6110f2565b60405161030191906133b5565b34801561058457600080fd5b5061033e7f06d294bc8cbad2e393408b20dd019a772661f60b8d633e56761157cb1ec85f8c81565b6103a06105ba3660046133c8565b611185565b3480156105cb57600080fd5b506103a06105da366004613424565b6112f3565b3480156105eb57600080fd5b506105ff6105fa36600461346f565b6113f1565b604051610301929190613549565b34801561061957600080fd5b506103a061062836600461356b565b6116e6565b34801561063957600080fd5b5061012e5473ffffffffffffffffffffffffffffffffffffffff166104e9565b34801561066557600080fd5b506103a06106743660046135be565b61171c565b34801561068557600080fd5b506103a06106943660046135be565b611757565b3480156106a557600080fd5b506103a06106b43660046132f0565b61178c565b3480156106c557600080fd5b5061033e7f0dcbfb19b09fb8ff4e9af583d4b8e9c8127cc1b26529b4d96dd3b7e77808837281565b3480156106f957600080fd5b5061033e7f4707e94b25cfce1a7c363508fbb838c35864388ad77284b248282b9746982b9b81565b34801561072d57600080fd5b506103a061073c3660046135ff565b6117bf565b34801561074d57600080fd5b506103a061075c366004613674565b6118c6565b34801561076d57600080fd5b506103a061077c366004613077565b611aff565b34801561078d57600080fd5b506102f561079c366004613284565b611b33565b7fffffffff00000000000000000000000000000000000000000000000000000000808316600090815260fb6020526040812054909160e09190911b908116610846576040517f54bdcc3e0000000000000000000000000000000000000000000000000000000081527fffffffff000000000000000000000000000000000000000000000000000000008086166004830152821660248201526044015b60405180910390fd5b837bffffffffffffffffffffffffffffffffffffffffffffffffffffffff19167f4792cb6e46e49876374bea490ba23274bacea6b84c216a64f47abab54027589b338560405161089792919061370d565b60405180910390a290505b92915050565b60007f01ffc9a7000000000000000000000000000000000000000000000000000000007fffffffff00000000000000000000000000000000000000000000000000000000831614806108a25750507fffffffff000000000000000000000000000000000000000000000000000000001660009081526033602052604090205460ff1690565b7f4707e94b25cfce1a7c363508fbb838c35864388ad77284b248282b9746982b9b61095781611b41565b6109618383611bc9565b505050565b61012d5460009073ffffffffffffffffffffffffffffffffffffffff1661098f575060006108a2565b61012d546040517f1626ba7e00000000000000000000000000000000000000000000000000000000815273ffffffffffffffffffffffffffffffffffffffff90911690631626ba7e906109e8908690869060040161373c565b602060405180830381865afa158015610a05573d6000803e3d6000fd5b505050506040513d601f19601f82011682018060405250810190610a299190613755565b9392505050565b7f815fe80e4b37c8582a3b773d1d7071f983eacfd56b5965db654f3087c25ada33610a5a81611b41565b60005b82811015610af9576000848483818110610a7957610a79613772565b905060600201803603810190610a8f91906137b5565b9050600081516002811115610aa657610aa661381e565b03610ac357610abe8682602001518360400151611c09565b610af0565b600181516002811115610ad857610ad861381e565b03610af057610af08682602001518360400151611c16565b50600101610a5d565b5050505050565b6000610b0e85858585611d55565b80610b345750610b348573ffffffffffffffffffffffffffffffffffffffff8585611d55565b80610b5a5750610b5a73ffffffffffffffffffffffffffffffffffffffff858585611d55565b90505b949350505050565b73ffffffffffffffffffffffffffffffffffffffff7f0000000000000000000000000000000000000000000000000000000000000000163003610c2a576040517f08c379a000000000000000000000000000000000000000000000000000000000815260206004820152602c60248201527f46756e6374696f6e206d7573742062652063616c6c6564207468726f7567682060448201527f64656c656761746563616c6c0000000000000000000000000000000000000000606482015260840161083d565b7f000000000000000000000000000000000000000000000000000000000000000073ffffffffffffffffffffffffffffffffffffffff16610c9f7f360894a13ba1a3210667c828492db98dca3e2076cc3735a920a3ca505d382bbc5473ffffffffffffffffffffffffffffffffffffffff1690565b73ffffffffffffffffffffffffffffffffffffffff1614610d42576040517f08c379a000000000000000000000000000000000000000000000000000000000815260206004820152602c60248201527f46756e6374696f6e206d7573742062652063616c6c6564207468726f7567682060448201527f6163746976652070726f78790000000000000000000000000000000000000000606482015260840161083d565b610d4b81611f3f565b60408051600080825260208201909252610d6791839190611f69565b50565b7f0dcbfb19b09fb8ff4e9af583d4b8e9c8127cc1b26529b4d96dd3b7e778088372610d9481611b41565b61012d80547fffffffffffffffffffffffff00000000000000000000000000000000000000001673ffffffffffffffffffffffffffffffffffffffff84169081179091556040519081527f3b25c5d3870ec0eac28822b177f18c9130233ade5b7f857c6a224a507c37fc4e906020015b60405180910390a15050565b73ffffffffffffffffffffffffffffffffffffffff7f0000000000000000000000000000000000000000000000000000000000000000163003610ed5576040517f08c379a000000000000000000000000000000000000000000000000000000000815260206004820152602c60248201527f46756e6374696f6e206d7573742062652063616c6c6564207468726f7567682060448201527f64656c656761746563616c6c0000000000000000000000000000000000000000606482015260840161083d565b7f000000000000000000000000000000000000000000000000000000000000000073ffffffffffffffffffffffffffffffffffffffff16610f4a7f360894a13ba1a3210667c828492db98dca3e2076cc3735a920a3ca505d382bbc5473ffffffffffffffffffffffffffffffffffffffff1690565b73ffffffffffffffffffffffffffffffffffffffff1614610fed576040517f08c379a000000000000000000000000000000000000000000000000000000000815260206004820152602c60248201527f46756e6374696f6e206d7573742062652063616c6c6564207468726f7567682060448201527f6163746976652070726f78790000000000000000000000000000000000000000606482015260840161083d565b610ff682611f3f565b61100282826001611f69565b5050565b60003073ffffffffffffffffffffffffffffffffffffffff7f000000000000000000000000000000000000000000000000000000000000000016146110cd576040517f08c379a000000000000000000000000000000000000000000000000000000000815260206004820152603860248201527f555550535570677261646561626c653a206d757374206e6f742062652063616c60448201527f6c6564207468726f7567682064656c656761746563616c6c0000000000000000606482015260840161083d565b507f360894a13ba1a3210667c828492db98dca3e2076cc3735a920a3ca505d382bbc90565b606061012f80546111029061384d565b80601f016020809104026020016040519081016040528092919081815260200182805461112e9061384d565b801561117b5780601f106111505761010080835404028352916020019161117b565b820191906000526020600020905b81548152906001019060200180831161115e57829003601f168201915b5050505050905090565b826000036111bf576040517f1f2a200500000000000000000000000000000000000000000000000000000000815260040160405180910390fd5b73ffffffffffffffffffffffffffffffffffffffff84166112215782341461121c576040517f1abd56100000000000000000000000000000000000000000000000000000000081526004810184905234602482015260440161083d565b611284565b3415611262576040517f1abd56100000000000000000000000000000000000000000000000000000000081526000600482015234602482015260440161083d565b61128473ffffffffffffffffffffffffffffffffffffffff8516333086612168565b8373ffffffffffffffffffffffffffffffffffffffff163373ffffffffffffffffffffffffffffffffffffffff167f2bc500cf071be2d1c1458ed6ff484cd4db4345ada8943dee7ff29e7af3558f768585856040516112e5939291906138e9565b60405180910390a350505050565b7ffaf505be9907aa6951c2ebe5b0312f4980e14f21912ed355372103cc8bd683bc61131d81611b41565b611326846121fd565b7fffffffff000000000000000000000000000000000000000000000000000000008316600090815260fb6020526040902080547fffffffffffffffffffffffffffffffffffffffffffffffffffffffff000000001660e084901c179055604080517fffffffff00000000000000000000000000000000000000000000000000000000808716825280861660208301528416918101919091527ffc72fd547553f7a663e0048e590afc9c47b56a4242e960f31cf4c62e23d308b99060600160405180910390a150505050565b606060007fbf04b4486c9663d805744005c3da000eda93de6e3308a4a7a812eb565327b78d61141f81611b41565b61010085111561145b576040517f11c763d600000000000000000000000000000000000000000000000000000000815260040160405180910390fd5b8467ffffffffffffffff811115611474576114746130b9565b6040519080825280602002602001820160405280156114a757816020015b60608152602001906001900390816114925790505b50925060008060005b87811015611681575a92506000808a8a848181106114d0576114d0613772565b90506020028101906114e29190613903565b6114f09060208101906132f0565b73ffffffffffffffffffffffffffffffffffffffff168b8b8581811061151857611518613772565b905060200281019061152a9190613903565b602001358c8c8681811061154057611540613772565b90506020028101906115529190613903565b611560906040810190613941565b60405161156e9291906139a6565b60006040518083038185875af1925050503d80600081146115ab576040519150601f19603f3d011682016040523d82523d6000602084013e6115b0565b606091505b50915091505a9350600160ff84161b891661160457816115ff576040517fa6a7dbbd0000000000000000000000000000000000000000000000000000000081526004810184905260240161083d565b611659565b81611659576116146040866139b6565b84101561164d576040517f1c26714c00000000000000000000000000000000000000000000000000000000815260040160405180910390fd5b600160ff84161b871896505b8088848151811061166c5761166c613772565b602090810291909101015250506001016114b0565b503373ffffffffffffffffffffffffffffffffffffffff167fd4e57c2049f004fb297ef78591cd409503ceb6b2c722d7ffed032fc99e5f3b588a8a8a8a898b6040516116d2969594939291906139f1565b60405180910390a250505094509492505050565b7f815fe80e4b37c8582a3b773d1d7071f983eacfd56b5965db654f3087c25ada3361171081611b41565b610af9858585856122e4565b7f815fe80e4b37c8582a3b773d1d7071f983eacfd56b5965db654f3087c25ada3361174681611b41565b611751848484611c09565b50505050565b7f815fe80e4b37c8582a3b773d1d7071f983eacfd56b5965db654f3087c25ada3361178181611b41565b611751848484611c16565b7f06d294bc8cbad2e393408b20dd019a772661f60b8d633e56761157cb1ec85f8c6117b681611b41565b61100282612660565b7f815fe80e4b37c8582a3b773d1d7071f983eacfd56b5965db654f3087c25ada336117e981611b41565b60005b8281101561175157600084848381811061180857611808613772565b905060a0020180360381019061181e9190613b66565b90506000815160028111156118355761183561381e565b0361185657611851816020015182604001518360800151611c09565b6118bd565b60018151600281111561186b5761186b61381e565b0361188757611851816020015182604001518360800151611c16565b60028151600281111561189c5761189c61381e565b036118bd576118bd81602001518260400151836080015184606001516122e4565b506001016117ec565b600054610100900460ff16158080156118e65750600054600160ff909116105b806119005750303b158015611900575060005460ff166001145b61198c576040517f08c379a000000000000000000000000000000000000000000000000000000000815260206004820152602e60248201527f496e697469616c697a61626c653a20636f6e747261637420697320616c72656160448201527f647920696e697469616c697a6564000000000000000000000000000000000000606482015260840161083d565b600080547fffffffffffffffffffffffffffffffffffffffffffffffffffffffffffffff0016600117905580156119ea57600080547fffffffffffffffffffffffffffffffffffffffffffffffffffffffffffff00ff166101001790555b611a137f9385547e000000000000000000000000000000000000000000000000000000006121fd565b611a3c7f1626ba7e000000000000000000000000000000000000000000000000000000006121fd565b611a657f7034731b000000000000000000000000000000000000000000000000000000006121fd565b611a6d6126da565b611a778787612802565b611a8084612660565b611a8a8383611bc9565b611a9385612833565b8015611af657600080547fffffffffffffffffffffffffffffffffffffffffffffffffffffffffffff00ff169055604051600181527f7f26b83ff96e1f2b6a682f133852f6798a09c465da95921460cefb38474024989060200160405180910390a15b50505050505050565b7f4707e94b25cfce1a7c363508fbb838c35864388ad77284b248282b9746982b9b611b2981611b41565b6109618383612802565b6000610b5a85858585610b00565b611b843033836000368080601f016020809104026020016040519081016040528093929190818152602001838380828437600092019190915250610b0092505050565b610d67576040517f1e09743f0000000000000000000000000000000000000000000000000000000081523060048201523360248201526044810182905260640161083d565b61012f611bd7828483613c43565b507fe9b617ecb5f63f6a9ccd8d4d5fa0d7b2ef9b17ce3f48e6b135808d6a40e677428282604051610e04929190613d5d565b61096183838360026122e4565b604080517f5045524d495353494f4e000000000000000000000000000000000000000000006020808301919091527fffffffffffffffffffffffffffffffffffffffff000000000000000000000000606086811b8216602a85015287901b16603e83015260528083018590528351808403909101815260729092019092528051910120600090600081815260c9602052604090205490915073ffffffffffffffffffffffffffffffffffffffff161561175157600081815260c9602090815260409182902080547fffffffffffffffffffffffff0000000000000000000000000000000000000000169055905173ffffffffffffffffffffffffffffffffffffffff8681168252851691339185917f3ca48185ec3f6e47e24db18b13f1c65b1ce05da1659f9c1c4fe717dda5f67524910160405180910390a450505050565b60008060c96000611ded8888886040517f5045524d495353494f4e0000000000000000000000000000000000000000000060208201527fffffffffffffffffffffffffffffffffffffffff000000000000000000000000606084811b8216602a84015285901b16603e820152605281018290526000906072016040516020818303038152906040528051906020012090509392505050565b815260208101919091526040016000205473ffffffffffffffffffffffffffffffffffffffff16905080611e25576000915050610b5d565b7ffffffffffffffffffffffffffffffffffffffffffffffffffffffffffffffffe73ffffffffffffffffffffffffffffffffffffffff821601611e6c576001915050610b5d565b6040517f2675fdd000000000000000000000000000000000000000000000000000000000815273ffffffffffffffffffffffffffffffffffffffff821690632675fdd090611ec4908990899089908990600401613d71565b602060405180830381865afa925050508015611f1b575060408051601f3d9081017fffffffffffffffffffffffffffffffffffffffffffffffffffffffffffffffe0168201909252611f1891810190613dba565b60015b15611f33578015611f3157600192505050610b5d565b505b50600095945050505050565b7f1f53edd44352e5d15bad2b29233baa93bcd595e09457780bc7c5445bbbe751cc61100281611b41565b7f4910fdfa16fed3260ed0e7147f7cc6da11a60208b5b9406d12a635614ffd91435460ff1615611f9c57610961836128d3565b8273ffffffffffffffffffffffffffffffffffffffff166352d1902d6040518163ffffffff1660e01b8152600401602060405180830381865afa925050508015612021575060408051601f3d9081017fffffffffffffffffffffffffffffffffffffffffffffffffffffffffffffffe016820190925261201e91810190613ddc565b60015b6120ad576040517f08c379a000000000000000000000000000000000000000000000000000000000815260206004820152602e60248201527f45524331393637557067726164653a206e657720696d706c656d656e7461746960448201527f6f6e206973206e6f742055555053000000000000000000000000000000000000606482015260840161083d565b7f360894a13ba1a3210667c828492db98dca3e2076cc3735a920a3ca505d382bbc811461215c576040517f08c379a000000000000000000000000000000000000000000000000000000000815260206004820152602960248201527f45524331393637557067726164653a20756e737570706f727465642070726f7860448201527f6961626c65555549440000000000000000000000000000000000000000000000606482015260840161083d565b506109618383836129dd565b6040805173ffffffffffffffffffffffffffffffffffffffff85811660248301528416604482015260648082018490528251808303909101815260849091019091526020810180517bffffffffffffffffffffffffffffffffffffffffffffffffffffffff167f23b872dd00000000000000000000000000000000000000000000000000000000179052611751908590612a02565b7fffffffff000000000000000000000000000000000000000000000000000000008082169003612289576040517f08c379a000000000000000000000000000000000000000000000000000000000815260206004820152601c60248201527f4552433136353a20696e76616c696420696e7465726661636520696400000000604482015260640161083d565b7fffffffff0000000000000000000000000000000000000000000000000000000016600090815260336020526040902080547fffffffffffffffffffffffffffffffffffffffffffffffffffffffffffffff00166001179055565b73ffffffffffffffffffffffffffffffffffffffff84811614801561231e575073ffffffffffffffffffffffffffffffffffffffff838116145b15612355576040517f85f1ba9900000000000000000000000000000000000000000000000000000000815260040160405180910390fd5b73ffffffffffffffffffffffffffffffffffffffff848116148061238e575073ffffffffffffffffffffffffffffffffffffffff838116145b1561247357600061239e83612b0e565b90507f815fe80e4b37c8582a3b773d1d7071f983eacfd56b5965db654f3087c25ada338314806123cb5750805b15612402576040517f24159e5b00000000000000000000000000000000000000000000000000000000815260040160405180910390fd5b7ffffffffffffffffffffffffffffffffffffffffffffffffffffffffffffffffe73ffffffffffffffffffffffffffffffffffffffff831601612471576040517f92ab7d0c00000000000000000000000000000000000000000000000000000000815260040160405180910390fd5b505b604080517f5045524d495353494f4e000000000000000000000000000000000000000000006020808301919091527fffffffffffffffffffffffffffffffffffffffff000000000000000000000000606087811b8216602a85015288901b16603e83015260528083018690528351808403909101815260729092019092528051910120600090600081815260c9602052604090205490915073ffffffffffffffffffffffffffffffffffffffff1682816125c457600083815260c9602090815260409182902080547fffffffffffffffffffffffff00000000000000000000000000000000000000001673ffffffffffffffffffffffffffffffffffffffff8581169190911790915582518a8216815287821692810192909252881691339188917f0f579ad49235a8c1fd9041427e7067b1eb10926bbed380bf6fabc73e0e807644910160405180910390a4611af6565b8073ffffffffffffffffffffffffffffffffffffffff168273ffffffffffffffffffffffffffffffffffffffff1614611af6576040517f0b98789e00000000000000000000000000000000000000000000000000000000815273ffffffffffffffffffffffffffffffffffffffff808916600483015280881660248301526044820187905280841660648301528216608482015260a40161083d565b61012e80547fffffffffffffffffffffffff00000000000000000000000000000000000000001673ffffffffffffffffffffffffffffffffffffffff83169081179091556040519081527fd91237492a9e30cd2faf361fc103998a382ff0ec2b1b07dc1cbebb76ae2f1ea29060200160405180910390a150565b6127037f150b7a02000000000000000000000000000000000000000000000000000000006121fd565b61272c7f4e2312e0000000000000000000000000000000000000000000000000000000006121fd565b60fb6020527f5a08f87af82de422c581ce019b2e54a9c17372e9cba575ae0470ba2482d6368680547fffffffffffffffffffffffffffffffffffffffffffffffffffffffff0000000090811663150b7a02179091557fe1cfe341950d56d8854f782066100d5ae1d5930cdb4949b973e554a343efc6c38054821663f23a6e611790557fbc197c81000000000000000000000000000000000000000000000000000000006000527f08ba3617671847c1c169da222a5bc01cfdefcc3c4f1e5525214a474479c89123805490911663bc197c81179055565b7fbb39ebb37e60fb5d606ffdb749d2336e56b88e6c88c4bd6513b308f643186eed8282604051610e04929190613d5d565b600054610100900460ff166128ca576040517f08c379a000000000000000000000000000000000000000000000000000000000815260206004820152602b60248201527f496e697469616c697a61626c653a20636f6e7472616374206973206e6f74206960448201527f6e697469616c697a696e67000000000000000000000000000000000000000000606482015260840161083d565b610d6781612c07565b73ffffffffffffffffffffffffffffffffffffffff81163b612977576040517f08c379a000000000000000000000000000000000000000000000000000000000815260206004820152602d60248201527f455243313936373a206e657720696d706c656d656e746174696f6e206973206e60448201527f6f74206120636f6e747261637400000000000000000000000000000000000000606482015260840161083d565b7f360894a13ba1a3210667c828492db98dca3e2076cc3735a920a3ca505d382bbc80547fffffffffffffffffffffffff00000000000000000000000000000000000000001673ffffffffffffffffffffffffffffffffffffffff92909216919091179055565b6129e683612c32565b6000825111806129f35750805b15610961576117518383612c7f565b6000612a64826040518060400160405280602081526020017f5361666545524332303a206c6f772d6c6576656c2063616c6c206661696c65648152508573ffffffffffffffffffffffffffffffffffffffff16612dbe9092919063ffffffff16565b8051909150156109615780806020019051810190612a829190613dba565b610961576040517f08c379a000000000000000000000000000000000000000000000000000000000815260206004820152602a60248201527f5361666545524332303a204552433230206f7065726174696f6e20646964206e60448201527f6f74207375636365656400000000000000000000000000000000000000000000606482015260840161083d565b60007fbf04b4486c9663d805744005c3da000eda93de6e3308a4a7a812eb565327b78d821480612b5d57507f1f53edd44352e5d15bad2b29233baa93bcd595e09457780bc7c5445bbbe751cc82145b80612b8757507f4707e94b25cfce1a7c363508fbb838c35864388ad77284b248282b9746982b9b82145b80612bb157507f06d294bc8cbad2e393408b20dd019a772661f60b8d633e56761157cb1ec85f8c82145b80612bdb57507f0dcbfb19b09fb8ff4e9af583d4b8e9c8127cc1b26529b4d96dd3b7e77808837282145b806108a25750507ffaf505be9907aa6951c2ebe5b0312f4980e14f21912ed355372103cc8bd683bc1490565b610d6730827f815fe80e4b37c8582a3b773d1d7071f983eacfd56b5965db654f3087c25ada33611c09565b612c3b816128d3565b60405173ffffffffffffffffffffffffffffffffffffffff8216907fbc7cd75a20ee27fd9adebab32041f755214dbc6bffa90cc0225b39da2e5c2d3b90600090a250565b606073ffffffffffffffffffffffffffffffffffffffff83163b612d25576040517f08c379a000000000000000000000000000000000000000000000000000000000815260206004820152602660248201527f416464726573733a2064656c65676174652063616c6c20746f206e6f6e2d636f60448201527f6e74726163740000000000000000000000000000000000000000000000000000606482015260840161083d565b6000808473ffffffffffffffffffffffffffffffffffffffff1684604051612d4d9190613df5565b600060405180830381855af49150503d8060008114612d88576040519150601f19603f3d011682016040523d82523d6000602084013e612d8d565b606091505b5091509150612db58282604051806060016040528060278152602001613e0860279139612dcd565b95945050505050565b6060610b5d8484600085612de6565b60608315612ddc575081610a29565b610a298383612eff565b606082471015612e78576040517f08c379a000000000000000000000000000000000000000000000000000000000815260206004820152602660248201527f416464726573733a20696e73756666696369656e742062616c616e636520666f60448201527f722063616c6c0000000000000000000000000000000000000000000000000000606482015260840161083d565b6000808673ffffffffffffffffffffffffffffffffffffffff168587604051612ea19190613df5565b60006040518083038185875af1925050503d8060008114612ede576040519150601f19603f3d011682016040523d82523d6000602084013e612ee3565b606091505b5091509150612ef487838387612f43565b979650505050505050565b815115612f0f5781518083602001fd5b806040517f08c379a000000000000000000000000000000000000000000000000000000000815260040161083d91906133b5565b60608315612fd9578251600003612fd25773ffffffffffffffffffffffffffffffffffffffff85163b612fd2576040517f08c379a000000000000000000000000000000000000000000000000000000000815260206004820152601d60248201527f416464726573733a2063616c6c20746f206e6f6e2d636f6e7472616374000000604482015260640161083d565b5081610b5d565b610b5d8383612eff565b7fffffffff0000000000000000000000000000000000000000000000000000000081168114610d6757600080fd5b60006020828403121561302357600080fd5b8135610a2981612fe3565b60008083601f84011261304057600080fd5b50813567ffffffffffffffff81111561305857600080fd5b60208301915083602082850101111561307057600080fd5b9250929050565b6000806020838503121561308a57600080fd5b823567ffffffffffffffff8111156130a157600080fd5b6130ad8582860161302e565b90969095509350505050565b7f4e487b7100000000000000000000000000000000000000000000000000000000600052604160045260246000fd5b600082601f8301126130f957600080fd5b813567ffffffffffffffff80821115613114576131146130b9565b604051601f83017fffffffffffffffffffffffffffffffffffffffffffffffffffffffffffffffe0908116603f0116810190828211818310171561315a5761315a6130b9565b8160405283815286602085880101111561317357600080fd5b836020870160208301376000602085830101528094505050505092915050565b600080604083850312156131a657600080fd5b82359150602083013567ffffffffffffffff8111156131c457600080fd5b6131d0858286016130e8565b9150509250929050565b73ffffffffffffffffffffffffffffffffffffffff81168114610d6757600080fd5b60008060006040848603121561321157600080fd5b833561321c816131da565b9250602084013567ffffffffffffffff8082111561323957600080fd5b818601915086601f83011261324d57600080fd5b81358181111561325c57600080fd5b87602060608302850101111561327157600080fd5b6020830194508093505050509250925092565b6000806000806080858703121561329a57600080fd5b84356132a5816131da565b935060208501356132b5816131da565b925060408501359150606085013567ffffffffffffffff8111156132d857600080fd5b6132e4878288016130e8565b91505092959194509250565b60006020828403121561330257600080fd5b8135610a29816131da565b6000806040838503121561332057600080fd5b823561332b816131da565b9150602083013567ffffffffffffffff8111156131c457600080fd5b60005b8381101561336257818101518382015260200161334a565b50506000910152565b60008151808452613383816020860160208601613347565b601f017fffffffffffffffffffffffffffffffffffffffffffffffffffffffffffffffe0169290920160200192915050565b602081526000610a29602083018461336b565b600080600080606085870312156133de57600080fd5b84356133e9816131da565b935060208501359250604085013567ffffffffffffffff81111561340c57600080fd5b6134188782880161302e565b95989497509550505050565b60008060006060848603121561343957600080fd5b833561344481612fe3565b9250602084013561345481612fe3565b9150604084013561346481612fe3565b809150509250925092565b6000806000806060858703121561348557600080fd5b84359350602085013567ffffffffffffffff808211156134a457600080fd5b818701915087601f8301126134b857600080fd5b8135818111156134c757600080fd5b8860208260051b85010111156134dc57600080fd5b95986020929092019750949560400135945092505050565b600081518084526020808501808196508360051b8101915082860160005b8581101561353c57828403895261352a84835161336b565b98850198935090840190600101613512565b5091979650505050505050565b60408152600061355c60408301856134f4565b90508260208301529392505050565b6000806000806080858703121561358157600080fd5b843561358c816131da565b9350602085013561359c816131da565b92506040850135915060608501356135b3816131da565b939692955090935050565b6000806000606084860312156135d357600080fd5b83356135de816131da565b925060208401356135ee816131da565b929592945050506040919091013590565b6000806020838503121561361257600080fd5b823567ffffffffffffffff8082111561362a57600080fd5b818501915085601f83011261363e57600080fd5b81358181111561364d57600080fd5b86602060a08302850101111561366257600080fd5b60209290920196919550909350505050565b6000806000806000806080878903121561368d57600080fd5b863567ffffffffffffffff808211156136a557600080fd5b6136b18a838b0161302e565b9098509650602089013591506136c6826131da565b9094506040880135906136d8826131da565b909350606088013590808211156136ee57600080fd5b506136fb89828a0161302e565b979a9699509497509295939492505050565b73ffffffffffffffffffffffffffffffffffffffff83168152604060208201526000610b5d604083018461336b565b828152604060208201526000610b5d604083018461336b565b60006020828403121561376757600080fd5b8151610a2981612fe3565b7f4e487b7100000000000000000000000000000000000000000000000000000000600052603260045260246000fd5b8035600381106137b057600080fd5b919050565b6000606082840312156137c757600080fd5b6040516060810181811067ffffffffffffffff821117156137ea576137ea6130b9565b6040526137f6836137a1565b81526020830135613806816131da565b60208201526040928301359281019290925250919050565b7f4e487b7100000000000000000000000000000000000000000000000000000000600052602160045260246000fd5b600181811c9082168061386157607f821691505b60208210810361389a577f4e487b7100000000000000000000000000000000000000000000000000000000600052602260045260246000fd5b50919050565b8183528181602085013750600060208284010152600060207fffffffffffffffffffffffffffffffffffffffffffffffffffffffffffffffe0601f840116840101905092915050565b838152604060208201526000610b5a6040830184866138a0565b600082357fffffffffffffffffffffffffffffffffffffffffffffffffffffffffffffffa183360301811261393757600080fd5b9190910192915050565b60008083357fffffffffffffffffffffffffffffffffffffffffffffffffffffffffffffffe184360301811261397657600080fd5b83018035915067ffffffffffffffff82111561399157600080fd5b60200191503681900382131561307057600080fd5b8183823760009101908152919050565b6000826139ec577f4e487b7100000000000000000000000000000000000000000000000000000000600052601260045260246000fd5b500490565b600060a08201888352602060a0818501528188835260c08501905060c08960051b86010192508960005b8a811015613b37577fffffffffffffffffffffffffffffffffffffffffffffffffffffffffffffff4087860301835281357fffffffffffffffffffffffffffffffffffffffffffffffffffffffffffffffa18d3603018112613a7c57600080fd5b8c0160608135613a8b816131da565b73ffffffffffffffffffffffffffffffffffffffff1687528186013586880152604080830135368490037fffffffffffffffffffffffffffffffffffffffffffffffffffffffffffffffe1018112613ae257600080fd5b90920186810192903567ffffffffffffffff811115613b0057600080fd5b803603841315613b0f57600080fd5b82828a0152613b21838a0182866138a0565b9850505093850193505090830190600101613a1b565b505050508560408401528460608401528281036080840152613b5981856134f4565b9998505050505050505050565b600060a08284031215613b7857600080fd5b60405160a0810181811067ffffffffffffffff82111715613b9b57613b9b6130b9565b604052613ba7836137a1565b81526020830135613bb7816131da565b60208201526040830135613bca816131da565b60408201526060830135613bdd816131da565b60608201526080928301359281019290925250919050565b601f82111561096157600081815260208120601f850160051c81016020861015613c1c5750805b601f850160051c820191505b81811015613c3b57828155600101613c28565b505050505050565b67ffffffffffffffff831115613c5b57613c5b6130b9565b613c6f83613c69835461384d565b83613bf5565b6000601f841160018114613cc15760008515613c8b5750838201355b7fffffffffffffffffffffffffffffffffffffffffffffffffffffffffffffffff600387901b1c1916600186901b178355610af9565b6000838152602090207fffffffffffffffffffffffffffffffffffffffffffffffffffffffffffffffe0861690835b82811015613d105786850135825560209485019460019092019101613cf0565b5086821015613d4b577fffffffffffffffffffffffffffffffffffffffffffffffffffffffffffffffff60f88860031b161c19848701351681555b505060018560011b0183555050505050565b602081526000610b5d6020830184866138a0565b600073ffffffffffffffffffffffffffffffffffffffff808716835280861660208401525083604083015260806060830152613db0608083018461336b565b9695505050505050565b600060208284031215613dcc57600080fd5b81518015158114610a2957600080fd5b600060208284031215613dee57600080fd5b5051919050565b6000825161393781846020870161334756fe416464726573733a206c6f772d6c6576656c2064656c65676174652063616c6c206661696c6564a26469706673582212208601ef705416ed9b35f5761e2e8cf161b36d638b0ea5899243540969f3d0e94764736f6c63430008110033",
  "devdoc": {
    "author": "Aragon Association - 2021-2023",
    "details": "Public API of the Aragon DAO framework.",
    "errors": {
      "ActionFailed(uint256)": [
        {
          "params": {
            "index": "The index of the action in the action array that failed."
          }
        }
      ],
      "NativeTokenDepositAmountMismatch(uint256,uint256)": [
        {
          "params": {
            "actual": "The actual native token amount deposited.",
            "expected": "The expected native token amount."
          }
        }
      ],
      "PermissionAlreadyGrantedForDifferentCondition(address,address,bytes32,address,address)": [
        {
          "details": "This makes sure that condition on the same permission can not be overwriten by a different condition.",
          "params": {
            "currentCondition": "The current condition set for permissionId.",
            "newCondition": "The new condition it tries to set for permissionId.",
            "permissionId": "The permission identifier.",
            "where": "The address of the target contract to grant `_who` permission to.",
            "who": "The address (EOA or contract) to which the permission has already been granted."
          }
        }
      ],
      "Unauthorized(address,address,bytes32)": [
        {
          "params": {
            "permissionId": "The permission identifier.",
            "where": "The context in which the authorization reverted.",
            "who": "The address (EOA or contract) missing the permission."
          }
        }
      ],
      "UnkownCallback(bytes4,bytes4)": [
        {
          "params": {
            "callbackSelector": "The selector of the callback function.",
            "magicNumber": "The magic number to be registered for the callback function selector."
          }
        }
      ]
    },
    "events": {
      "NewURI(string)": {
        "params": {
          "daoURI": "The new URI."
        }
      }
    },
    "kind": "dev",
    "methods": {
      "applyMultiTargetPermissions((uint8,address,address,address,bytes32)[])": {
        "params": {
          "_items": "The array of multi-targeted permission operations to apply."
        }
      },
      "applySingleTargetPermissions(address,(uint8,address,bytes32)[])": {
        "params": {
          "_where": "The address of the single target contract.",
          "items": "The array of single-targeted permission operations to apply."
        }
      },
      "daoURI()": {
        "returns": {
          "_0": "The DAO URI."
        }
      },
      "deposit(address,uint256,string)": {
        "params": {
          "_amount": "The amount of tokens to deposit.",
          "_reference": "The reference describing the deposit reason.",
          "_token": "The address of the token or address(0) in case of the native token."
        }
      },
      "execute(bytes32,(address,uint256,bytes)[],uint256)": {
        "params": {
          "_actions": "The array of actions.",
          "_allowFailureMap": "A bitmap allowing execution to succeed, even if individual actions might revert. If the bit at index `i` is 1, the execution succeeds even if the `i`th action reverts. A failure map value of 0 requires every action to not revert.",
          "_callId": "The ID of the call. The definition of the value of `callId` is up to the calling contract and can be used, e.g., as a nonce."
        },
        "returns": {
          "execResults": "The array of results obtained from the executed actions in `bytes`.",
          "failureMap": "The resulting failure map containing the actions have actually failed."
        }
      },
      "getTrustedForwarder()": {
        "returns": {
          "_0": "The trusted forwarder address."
        }
      },
      "grant(address,address,bytes32)": {
        "details": "Requires the `ROOT_PERMISSION_ID` permission.Note, that granting permissions with `_who` or `_where` equal to `ANY_ADDR` does not replace other permissions with specific `_who` and `_where` addresses that exist in parallel.",
        "params": {
          "_permissionId": "The permission identifier.",
          "_where": "The address of the target contract for which `_who` receives permission.",
          "_who": "The address (EOA or contract) receiving the permission."
        }
      },
      "grantWithCondition(address,address,bytes32,address)": {
        "details": "Requires the `ROOT_PERMISSION_ID` permissionNote, that granting permissions with `_who` or `_where` equal to `ANY_ADDR` does not replace other permissions with specific `_who` and `_where` addresses that exist in parallel.",
        "params": {
          "_condition": "The `PermissionCondition` that will be asked for authorization on calls connected to the specified permission identifier.",
          "_permissionId": "The permission identifier.",
          "_where": "The address of the target contract for which `_who` receives permission.",
          "_who": "The address (EOA or contract) receiving the permission."
        }
      },
      "hasPermission(address,address,bytes32,bytes)": {
        "params": {
          "_data": "The optional data passed to the `PermissionCondition` registered.",
          "_permissionId": "The permission identifier.",
          "_where": "The address of the contract.",
          "_who": "The address of a EOA or contract to give the permissions."
        },
        "returns": {
          "_0": "Returns true if the address has permission, false if not."
        }
      },
      "initialize(bytes,address,address,string)": {
        "details": "This method is required to support [ERC-1822](https://eips.ethereum.org/EIPS/eip-1822).",
        "params": {
          "_initialOwner": "The initial owner of the DAO having the `ROOT_PERMISSION_ID` permission.",
          "_metadata": "IPFS hash that points to all the metadata (logo, description, tags, etc.) of a DAO.",
          "_trustedForwarder": "The trusted forwarder responsible for verifying meta transactions.",
          "daoURI_": "The DAO URI required to support [ERC-4824](https://eips.ethereum.org/EIPS/eip-4824)."
        }
      },
      "isGranted(address,address,bytes32,bytes)": {
        "params": {
          "_data": "The optional data passed to the `PermissionCondition` registered.",
          "_permissionId": "The permission identifier.",
          "_where": "The address of the target contract for which `_who` receives permission.",
          "_who": "The address (EOA or contract) for which the permission is checked."
        },
        "returns": {
          "_0": "Returns true if `_who` has the permissions on the target contract via the specified permission identifier."
        }
      },
      "isValidSignature(bytes32,bytes)": {
        "params": {
          "_hash": "The hash of the data to be signed.",
          "_signature": "The signature byte array associated with `_hash`."
        },
        "returns": {
          "_0": "Returns the `bytes4` magic value `0x1626ba7e` if the signature is valid."
        }
      },
      "proxiableUUID()": {
        "details": "Implementation of the ERC1822 {proxiableUUID} function. This returns the storage slot used by the implementation. It is used to validate the implementation's compatibility when performing an upgrade. IMPORTANT: A proxy pointing at a proxiable contract should not be considered proxiable itself, because this risks bricking a proxy that upgrades to it, by delegating to itself until out of gas. Thus it is critical that this function revert if invoked through a proxy. This is guaranteed by the `notDelegated` modifier."
      },
      "registerStandardCallback(bytes4,bytes4,bytes4)": {
        "params": {
          "_callbackSelector": "The selector of the callback function.",
          "_interfaceId": "The ID of the interface.",
          "_magicNumber": "The magic number to be registered for the function signature."
        }
      },
      "revoke(address,address,bytes32)": {
        "details": "Requires the `ROOT_PERMISSION_ID` permission.Note, that revoking permissions with `_who` or `_where` equal to `ANY_ADDR` does not revoke other permissions with specific `_who` and `_where` addresses that exist in parallel.",
        "params": {
          "_permissionId": "The permission identifier.",
          "_where": "The address of the target contract for which `_who` loses permission.",
          "_who": "The address (EOA or contract) losing the permission."
        }
      },
      "setDaoURI(string)": {
        "params": {
          "newDaoURI": "The new DAO URI to be set."
        }
      },
      "setMetadata(bytes)": {
        "params": {
          "_metadata": "The IPFS hash of the new metadata object."
        }
      },
      "setSignatureValidator(address)": {
        "params": {
          "_signatureValidator": "The address of the signature validator."
        }
      },
      "setTrustedForwarder(address)": {
        "params": {
          "_trustedForwarder": "The trusted forwarder address."
        }
      },
      "supportsInterface(bytes4)": {
        "details": "See {IERC165-supportsInterface}."
      },
      "upgradeTo(address)": {
        "details": "Upgrade the implementation of the proxy to `newImplementation`. Calls {_authorizeUpgrade}. Emits an {Upgraded} event."
      },
      "upgradeToAndCall(address,bytes)": {
        "details": "Upgrade the implementation of the proxy to `newImplementation`, and subsequently execute the function call encoded in `data`. Calls {_authorizeUpgrade}. Emits an {Upgraded} event."
      }
    },
    "title": "DAO",
    "version": 1
  },
  "userdoc": {
    "errors": {
      "ActionFailed(uint256)": [
        {
          "notice": "Thrown if action execution has failed."
        }
      ],
      "AnyAddressDisallowedForWhoAndWhere()": [
        {
          "notice": "Thrown for permission grants where `who` and `where` are both `ANY_ADDR`."
        }
      ],
      "ConditionNotPresentForAnyAddress()": [
        {
          "notice": "Thrown for permission grants where `who` or `where` is `ANY_ADDR`, but no condition is present."
        }
      ],
      "InsufficientGas()": [
        {
          "notice": "Thrown if an action has insufficent gas left."
        }
      ],
      "NativeTokenDepositAmountMismatch(uint256,uint256)": [
        {
          "notice": "Thrown if there is a mismatch between the expected and actually deposited amount of native tokens."
        }
      ],
      "PermissionAlreadyGrantedForDifferentCondition(address,address,bytes32,address,address)": [
        {
          "notice": "Thrown if a permission has been already granted with a different condition."
        }
      ],
      "PermissionsForAnyAddressDisallowed()": [
        {
          "notice": "Thrown for `ROOT_PERMISSION_ID` or `EXECUTE_PERMISSION_ID` permission grants where `who` or `where` is `ANY_ADDR`."
        }
      ],
      "TooManyActions()": [
        {
          "notice": "Thrown if the action array length is larger than `MAX_ACTIONS`."
        }
      ],
      "Unauthorized(address,address,bytes32)": [
        {
          "notice": "Thrown if a call is unauthorized."
        }
      ],
      "UnkownCallback(bytes4,bytes4)": [
        {
          "notice": "Thrown if the callback function is not registered."
        }
      ],
      "ZeroAmount()": [
        {
          "notice": "Thrown if the deposit amount is zero."
        }
      ]
    },
    "events": {
      "CallbackReceived(address,bytes4,bytes)": {
        "notice": "Emitted when `_handleCallback` is called."
      },
      "Deposited(address,address,uint256,string)": {
        "notice": "Emitted when a token deposit has been made to the DAO."
      },
      "Executed(address,bytes32,(address,uint256,bytes)[],uint256,uint256,bytes[])": {
        "notice": "Emitted when a proposal is executed."
      },
      "Granted(bytes32,address,address,address,address)": {
        "notice": "Emitted when a permission `permission` is granted in the context `here` to the address `_who` for the contract `_where`."
      },
      "MetadataSet(bytes)": {
        "notice": "Emitted when the DAO metadata is updated."
      },
      "NativeTokenDeposited(address,uint256)": {
        "notice": "Emitted when a native token deposit has been made to the DAO."
      },
      "NewURI(string)": {
        "notice": "Emitted when a new DAO URI is set."
      },
      "Revoked(bytes32,address,address,address)": {
        "notice": "Emitted when a permission `permission` is revoked in the context `here` from the address `_who` for the contract `_where`."
      },
      "SignatureValidatorSet(address)": {
        "notice": "Emitted when the signature validator address is updated."
      },
      "StandardCallbackRegistered(bytes4,bytes4,bytes4)": {
        "notice": "Emitted when a standard callback is registered."
      },
      "TrustedForwarderSet(address)": {
        "notice": "Emitted when a new TrustedForwarder is set on the DAO."
      }
    },
    "kind": "user",
    "methods": {
      "EXECUTE_PERMISSION_ID()": {
        "notice": "The ID of the permission required to call the `execute` function."
      },
      "REGISTER_STANDARD_CALLBACK_PERMISSION_ID()": {
        "notice": "The ID of the permission required to call the `registerStandardCallback` function."
      },
      "ROOT_PERMISSION_ID()": {
        "notice": "The ID of the permission required to call the `grant`, `grantWithCondition`, `revoke`, and `bulk` function."
      },
      "SET_METADATA_PERMISSION_ID()": {
        "notice": "The ID of the permission required to call the `setMetadata` function."
      },
      "SET_SIGNATURE_VALIDATOR_PERMISSION_ID()": {
        "notice": "The ID of the permission required to call the `setSignatureValidator` function."
      },
      "SET_TRUSTED_FORWARDER_PERMISSION_ID()": {
        "notice": "The ID of the permission required to call the `setTrustedForwarder` function."
      },
      "UPGRADE_DAO_PERMISSION_ID()": {
        "notice": "The ID of the permission required to call the `_authorizeUpgrade` function."
      },
      "applyMultiTargetPermissions((uint8,address,address,address,bytes32)[])": {
        "notice": "Applies an array of permission operations on multiple target contracts `items[i].where`."
      },
      "applySingleTargetPermissions(address,(uint8,address,bytes32)[])": {
        "notice": "Applies an array of permission operations on a single target contracts `_where`."
      },
      "constructor": {
        "notice": "Disables the initializers on the implementation contract to prevent it from being left uninitialized."
      },
      "daoURI()": {
        "notice": "A distinct Uniform Resource Identifier (URI) pointing to a JSON object following the \"EIP-4824 DAO JSON-LD Schema\". This JSON file splits into four URIs: membersURI, proposalsURI, activityLogURI, and governanceURI. The membersURI should point to a JSON file that conforms to the \"EIP-4824 Members JSON-LD Schema\". The proposalsURI should point to a JSON file that conforms to the \"EIP-4824 Proposals JSON-LD Schema\". The activityLogURI should point to a JSON file that conforms to the \"EIP-4824 Activity Log JSON-LD Schema\". The governanceURI should point to a flatfile, normatively a .md file. Each of the JSON files named above can be statically hosted or dynamically-generated."
      },
      "deposit(address,uint256,string)": {
        "notice": "Deposits (native) tokens to the DAO contract with a reference string."
      },
      "execute(bytes32,(address,uint256,bytes)[],uint256)": {
        "notice": "Executes a list of actions. If a zero allow-failure map is provided, a failing action reverts the entire execution. If a non-zero allow-failure map is provided, allowed actions can fail without the entire call being reverted."
      },
      "getTrustedForwarder()": {
        "notice": "Getter for the trusted forwarder verifying the meta transaction."
      },
      "grant(address,address,bytes32)": {
        "notice": "Grants permission to an address to call methods in a contract guarded by an auth modifier with the specified permission identifier."
      },
      "grantWithCondition(address,address,bytes32,address)": {
        "notice": "Grants permission to an address to call methods in a target contract guarded by an auth modifier with the specified permission identifier if the referenced condition permits it."
      },
      "hasPermission(address,address,bytes32,bytes)": {
        "notice": "Checks if an address has permission on a contract via a permission identifier and considers if `ANY_ADDRESS` was used in the granting process."
      },
      "initialize(bytes,address,address,string)": {
        "notice": "Initializes the DAO by - registering the [ERC-165](https://eips.ethereum.org/EIPS/eip-165) interface ID - setting the trusted forwarder for meta transactions - giving the `ROOT_PERMISSION_ID` permission to the initial owner (that should be revoked and transferred to the DAO after setup)."
      },
      "isGranted(address,address,bytes32,bytes)": {
        "notice": "Checks if an address has permission on a contract via a permission identifier and considers if `ANY_ADDRESS` was used in the granting process."
      },
      "isValidSignature(bytes32,bytes)": {
        "notice": "Checks whether a signature is valid for the provided hash by forwarding the call to the set [ERC-1271](https://eips.ethereum.org/EIPS/eip-1271) signature validator contract."
      },
      "registerStandardCallback(bytes4,bytes4,bytes4)": {
        "notice": "Registers an ERC standard having a callback by registering its [ERC-165](https://eips.ethereum.org/EIPS/eip-165) interface ID and callback function signature."
      },
      "revoke(address,address,bytes32)": {
        "notice": "Revokes permission from an address to call methods in a target contract guarded by an auth modifier with the specified permission identifier."
      },
      "setDaoURI(string)": {
        "notice": "Updates the set DAO URI to a new value."
      },
      "setMetadata(bytes)": {
        "notice": "Updates the DAO metadata (e.g., an IPFS hash)."
      },
      "setSignatureValidator(address)": {
        "notice": "Setter for the [ERC-1271](https://eips.ethereum.org/EIPS/eip-1271) signature validator contract."
      },
      "setTrustedForwarder(address)": {
        "notice": "Setter for the trusted forwarder verifying the meta transaction."
      },
      "signatureValidator()": {
        "notice": "The [ERC-1271](https://eips.ethereum.org/EIPS/eip-1271) signature validator contract."
      }
    },
    "notice": "This contract is the entry point to the Aragon DAO framework and provides our users a simple and easy to use public interface.",
    "version": 1
  },
  "storageLayout": {
    "storage": [
      {
        "astId": 5669,
        "contract": "src/core/dao/DAO.sol:DAO",
        "label": "_initialized",
        "offset": 0,
        "slot": "0",
        "type": "t_uint8"
      },
      {
        "astId": 5672,
        "contract": "src/core/dao/DAO.sol:DAO",
        "label": "_initializing",
        "offset": 1,
        "slot": "0",
        "type": "t_bool"
      },
      {
        "astId": 11076,
        "contract": "src/core/dao/DAO.sol:DAO",
        "label": "__gap",
        "offset": 0,
        "slot": "1",
        "type": "t_array(t_uint256)50_storage"
      },
      {
        "astId": 10988,
        "contract": "src/core/dao/DAO.sol:DAO",
        "label": "_supportedInterfaces",
        "offset": 0,
        "slot": "51",
        "type": "t_mapping(t_bytes4,t_bool)"
      },
      {
        "astId": 11032,
        "contract": "src/core/dao/DAO.sol:DAO",
        "label": "__gap",
        "offset": 0,
        "slot": "52",
        "type": "t_array(t_uint256)49_storage"
      },
      {
        "astId": 5651,
        "contract": "src/core/dao/DAO.sol:DAO",
        "label": "__gap",
        "offset": 0,
        "slot": "101",
        "type": "t_array(t_uint256)50_storage"
      },
      {
        "astId": 5966,
        "contract": "src/core/dao/DAO.sol:DAO",
        "label": "__gap",
        "offset": 0,
        "slot": "151",
        "type": "t_array(t_uint256)50_storage"
      },
      {
        "astId": 20485,
        "contract": "src/core/dao/DAO.sol:DAO",
        "label": "permissionsHashed",
        "offset": 0,
        "slot": "201",
        "type": "t_mapping(t_bytes32,t_address)"
      },
      {
        "astId": 21147,
        "contract": "src/core/dao/DAO.sol:DAO",
        "label": "__gap",
        "offset": 0,
        "slot": "202",
        "type": "t_array(t_uint256)49_storage"
      },
      {
        "astId": 21960,
        "contract": "src/core/dao/DAO.sol:DAO",
        "label": "callbackMagicNumbers",
        "offset": 0,
        "slot": "251",
        "type": "t_mapping(t_bytes4,t_bytes4)"
      },
      {
        "astId": 22039,
        "contract": "src/core/dao/DAO.sol:DAO",
        "label": "__gap",
        "offset": 0,
        "slot": "252",
        "type": "t_array(t_uint256)49_storage"
      },
      {
        "astId": 19562,
        "contract": "src/core/dao/DAO.sol:DAO",
        "label": "signatureValidator",
        "offset": 0,
        "slot": "301",
        "type": "t_contract(IERC1271)13509"
      },
      {
        "astId": 19565,
        "contract": "src/core/dao/DAO.sol:DAO",
        "label": "trustedForwarder",
        "offset": 0,
        "slot": "302",
        "type": "t_address"
      },
      {
        "astId": 19568,
        "contract": "src/core/dao/DAO.sol:DAO",
        "label": "_daoURI",
        "offset": 0,
        "slot": "303",
        "type": "t_string_storage"
      },
      {
        "astId": 20221,
        "contract": "src/core/dao/DAO.sol:DAO",
        "label": "__gap",
        "offset": 0,
        "slot": "304",
        "type": "t_array(t_uint256)47_storage"
      }
    ],
    "types": {
      "t_address": {
        "encoding": "inplace",
        "label": "address",
        "numberOfBytes": "20"
      },
      "t_array(t_uint256)47_storage": {
        "base": "t_uint256",
        "encoding": "inplace",
        "label": "uint256[47]",
        "numberOfBytes": "1504"
      },
      "t_array(t_uint256)49_storage": {
        "base": "t_uint256",
        "encoding": "inplace",
        "label": "uint256[49]",
        "numberOfBytes": "1568"
      },
      "t_array(t_uint256)50_storage": {
        "base": "t_uint256",
        "encoding": "inplace",
        "label": "uint256[50]",
        "numberOfBytes": "1600"
      },
      "t_bool": {
        "encoding": "inplace",
        "label": "bool",
        "numberOfBytes": "1"
      },
      "t_bytes32": {
        "encoding": "inplace",
        "label": "bytes32",
        "numberOfBytes": "32"
      },
      "t_bytes4": {
        "encoding": "inplace",
        "label": "bytes4",
        "numberOfBytes": "4"
      },
      "t_contract(IERC1271)13509": {
        "encoding": "inplace",
        "label": "contract IERC1271",
        "numberOfBytes": "20"
      },
      "t_mapping(t_bytes32,t_address)": {
        "encoding": "mapping",
        "key": "t_bytes32",
        "label": "mapping(bytes32 => address)",
        "numberOfBytes": "32",
        "value": "t_address"
      },
      "t_mapping(t_bytes4,t_bool)": {
        "encoding": "mapping",
        "key": "t_bytes4",
        "label": "mapping(bytes4 => bool)",
        "numberOfBytes": "32",
        "value": "t_bool"
      },
      "t_mapping(t_bytes4,t_bytes4)": {
        "encoding": "mapping",
        "key": "t_bytes4",
        "label": "mapping(bytes4 => bytes4)",
        "numberOfBytes": "32",
        "value": "t_bytes4"
      },
      "t_string_storage": {
        "encoding": "bytes",
        "label": "string",
        "numberOfBytes": "32"
      },
      "t_uint256": {
        "encoding": "inplace",
        "label": "uint256",
        "numberOfBytes": "32"
      },
      "t_uint8": {
        "encoding": "inplace",
        "label": "uint8",
        "numberOfBytes": "1"
      }
    }
  }
}